:020000040800F2
:10000000FC0F00208D1400002D1E00002D1E00008E
:100010002D1E00002D1E00002D1E00002D1E0000B4
:100020002D1E00002D1E00002D1E00002D1E0000A4
:100030002D1E00002D1E00002D1E00002D1E000094
:100040002D1E00002D1E00002D1E00002D1E000084
:100050002D1E00002D1E00002D1E00002D1E000074
:100060002D1E00002D1E00002D1E00002D1E000064
:100070002D1E00002D1E00002D1E00002D1E000054
:100080002D1E00002D1E00002D1E00002D1E000044
:100090002D1E00002D1E00002D1E00002D1E000034
:1000A0002D1E00002D1E00002D1E000061170000F7
:1000B0002D1E00002D1E00002D1E00002D1E000014
:1000C00000B515490140084600220BE013481CE02A
:1000D00013481AE0134818E0134816E0134814E0D8
:1000E000134812E013498842F0D013498842EFD0F8
:1000F00012498842EED012498842EDD01149884217
:10010000ECD011498842EBD01046104909680A46E4
:1001100002430E490A6000BD00FCFFFF0000020020
:100120000000040000000800000010000000200093
:10013000000040000000004800040048000800489B
:10014000000C004800100048001400481410024041
:1001500000B586B004910592A44B03400293FFF7CB
:10016000AFFF049B9BB2FF2B21D1029B1C68A04BCD
:1001700020461840059C9F4B9C4212D19E4B044642
:100180001C43029B1C60029B1D1D2C689B4B234043
:100190002B60029B1D4608352C68994B23432B602E
:1001A00021E1059B422B02D1029B18601BE1049CBC
:1001B000A4B2944B9C4221D1029B1C68904B2340DB
:1001C0001846059C8B4B9C4212D18F4B04461C4316
:1001D000029B1C60029B1D1D2C688C4B23402B60D6
:1001E000029B1D4608352C68814B23432B60FAE0A7
:1001F000059B422B02D1029B1860F4E0049CA4B240
:100200007F4B9C4217D1059C7A4B9C420CD1804C71
:10021000029B1C60029B1C1D00232360029B1C464A
:1002200008347C4B2360DEE0059B422B03D1002485
:10023000029B1C60D7E0059C01232340002B02D0C9
:10024000032007460FE0059C08232340002B01D024
:10025000022007E0059C04232340002B01D001204D
:1002600000E000200746059C6B4B2340002B01D08B
:10027000032207E0059C694B2340002B01D001229B
:1002800000E00022059C20232340002B01D0012107
:1002900000E00021059CFF2301332340002B02D006
:1002A0000224204608E0059C80232340002B01D037
:1002B000012400E00024204600230193019B102B21
:1002C00000D390E0019D01231C46AC40049B9BB2EF
:1002D0002340A34200D082E0019B5D00032423461B
:1002E000AB40DC43029B1B681C40029B1C60019BD3
:1002F0005B003C469C40029B1B681C43029B1C60AD
:10030000059C0C232340002B27D0029B1E46083659
:10031000019B5D0003242346AB40DC43336823404C
:100320003360029B1D460835019B5B0014469C40D0
:100330002B6823432B60029B1E1D019D0124234635
:10034000AB40DC43336823403360029B1D1D019B9F
:100350000C469C402B6823432B60029B1E460C36A8
:10036000019B5D0003242346AB40DC4333682340FC
:100370003360029B1D460C35019B5B0004469C408C
:100380002B6823432B60059C08232340002B26D099
:10039000059C234B23401B0D0093019B072B06D983
:1003A000029B24330393019B1E46083E03E0029BFD
:1003B00020330393019EB5000F242346AB40DC435A
:1003C000039B1B681C40039B1C60009DEDB2B300A7
:1003D0002C469C40039B1B681C43039B1C60019B99
:1003E000013301936AE706B000BD00BF00FCFFFFC8
:1003F0000000FFFF140008005555000000FFFFFF3C
:10040000FFFF000000FF000000005555FF00FFFF48
:1004100055555555FFFFFFFF000808000004000078
:100420000000F000024F00BF7F1EFDD102E000BFC0
:10043000070000007047060000B50148006800BDD5
:10044000A400002000B583B00C46FF2203461340F1
:100450001A0915460F2219461140030A0F221A40A5
:10046000104611E0204A02921AE0204A029217E058
:100470001F4A029214E01F4A029211E01E4A0292A1
:100480000EE01E4A02920BE0002DEBD0012DECD0C5
:10049000022DEDD0032DEED0042DEFD0052DF0D0A0
:1004A00001228A400090019191B222460298FFF702
:1004B0004FFE01990098029A15462035072902D966
:1004C00004350839FFE78C000F231A46A240D343B6
:1004D0002A681A402A608A00034693402A681A4311
:1004E0002A6003B000BD00BF0000004800040048BF
:1004F00000080048000C00480010004800140048A4
:1005000000B50E48016801200840002801D00120F4
:1005100012E00A480168102008400009002801D0B4
:10052000032009E0054801680420084080080028ED
:1005300001D0022000E0002000BD00BF0C200240DE
:1005400000B5FFF7DDFF01460846012802D1FFF79D
:10055000D7FFFAE700BD01FF00B5124A106801217C
:10056000890008431060FFF75DFFFFF75BFF0E4A4D
:1005700010680121490008431060FFF753FFFFF79F
:1005800051FF084A10680121890088431060FFF775
:1005900049FFFFF747FF044A1068012149008843DB
:1005A000106000BD140000481400004800B5074862
:1005B000016880200840C009002805D0044905488A
:1005C000016005490348016000BD00BF10200240E2
:1005D0002301674504200240AB89EFCD81B03AB4D6
:1005E000140002D102460C4813E0134602460020D4
:1005F0002021012409E01546CD409D4205D31D462A
:100600008D40521B25468D4040190D46491E002D38
:10061000F1DC3ABC02E000BFFFFFFFFF01B0704712
:1006200000B582B00024A10041180A680C498A4232
:1006300013D001463431A300C91809680A46C1180D
:1006400009680090019408461146FFF7FBFE019CE3
:10065000A4B200980134A4B2E5E702B000BD00BF27
:10066000FFFFFFFF00B581B0034619460091FFF779
:10067000E3FE21490A46424300990A601F490A687D
:10068000F02111400A091E4989180878C0B21A1DC4
:100690001968C140116019490A681A4911400A0ACB
:1006A000174989180978C8B21A460832191D09680D
:1006B000C140116014490A6801211140002904D089
:1006C0001A460C321149116014E0194608310A68C3
:1006D0000F498A4207D91A460C321946083109686F
:1006E0008908116006E01A460C321946083109687B
:1006F0004908116001B000BDE80300000410024089
:10070000182100000007000034100240809FD5002F
:1007100000366E0181B070B40024050C05D11024A0
:10072000000402D1002922D01124050E01D1083481
:100730000002050F01D1241D0001850F01D1A41C69
:100740008000002801DB641C4000002908D020251F
:100750002E1B0D46F540A14000D001210D4328433A
:100760001B1B0106DB1D000A002B02DA002070BCF7
:100770000CE0DB05181880180029F8DA401C490045
:10078000F5D170BC4008400000E0000001B07047A7
:1007900000B581B081B2002400948020009CA4B2F6
:1007A0008DB2002847D0FFF73DFEFFF73BFE464BDA
:1007B00019680122920011431960FFF733FEFFF719
:1007C00031FE424B19680122520011431960404B1F
:1007D00019780122914319700095A5B284B200984E
:1007E00080B23C490A6801214900114049080029AA
:1007F00007D137490A7801211140002900D000E0D3
:10080000EFE735490A68012189001140890800296C
:1008100002D02543ADB2FFE7FFF704FEFFF702FE6B
:100820002A4B196801225200914319606108ACB249
:1008300085B288B2B5E7244B1968012292001143B2
:100840001960FFF7EFFDFFF7EDFD002D05D01E4B02
:1008500019680122920091431960FFF7E3FDFFF749
:10086000E1FD1A4B19680122520011431960184B1F
:100870001978012291431970A0B216490A68012122
:10088000490011404908002907D111490A7801217E
:100890001140002900D000E0EFE7FFF7C3FDFFF7AC
:1008A000C1FD0A4B19680122520091431960FFF7FC
:1008B000B9FDFFF7B7FD044B19680122920091437F
:1008C0001960C0B201B000BD140000481400004817
:1008D000A2000020100000481000004800B5204A87
:1008E00010680121890088431060FFF79BFDFFF726
:1008F00099FD1C4A106801214900084310601A4AFA
:1009000010780121884310701848016801204000C8
:1009100008404008002807D113480178012008400A
:10092000002800D000E0EFE7FFF77CFDFFF77AFD3D
:10093000FFF778FDFFF776FDFFF774FDFFF772FD17
:10094000FFF770FDFFF76EFD054A10680121890071
:1009500008431060FFF766FDFFF764FD00BD00BFB0
:100960001400004814000048A200002010000048B5
:1009700081B0002904DA401C490001D14008400040
:1009800001B0704781B0084A106820210843106008
:10099000054A1068042108431060034A10681021BA
:1009A0000843106001B070470C20024000B5C1B28E
:1009B0008020CCB2002845D0FFF734FDFFF732FD90
:1009C000FFF730FDFFF72EFD594B19680122520049
:1009D00091431960FFF726FDFFF724FD21460140F2
:1009E00089B2002906D0534B1968012292001143A5
:1009F000196005E04F4B196801229200914319607C
:100A0000FFF710FDFFF70EFD494B19680122520058
:100A100011431960484B19780122914319704749D5
:100A20000A680121490011404908002907D14249BB
:100A30000A7801211140002900D000E0EFE74008CA
:100A400080B2B7E7FFF7EEFCFFF7ECFC384B196814
:100A50000122520091431960FFF7E4FCFFF7E2FC2A
:100A6000344B19680122920011431960FFF7DAFC38
:100A7000FFF7D8FCFFF7D6FCFFF7D4FC2C4B196826
:100A800001225200114319602B4B19780122914326
:100A900019702A490A6801214900114049080029B2
:100AA00007D125490A7801211140002900D000E032
:100AB000EFE70020FFF7B6FCFFF7B4FC20490A6817
:100AC0000121890011408908002903D00121084330
:100AD00080B2FFE7FFF7A6FCFFF7A4FCFFF7A2FC3C
:100AE000FFF7A0FCFFF79EFCFFF79CFCFFF79AFCCA
:100AF000FFF798FCFFF796FCFFF794FCFFF792FCDA
:100B0000FFF790FCFFF78EFCFFF78CFCFFF78AFCE9
:100B1000FFF788FC064B19680122520091431960C7
:100B2000044B19680122920091431960C0B200BDC4
:100B30001400004814000048A200002010000048E3
:100B40001000004800B50446FFF71CFFFFF72EFD1C
:100B5000FFF7F6FC014600282CD1174B196802223A
:100B60001143196015490A6800210A4013490A60B7
:100B7000124909680A46224310490A600E4B196857
:100B800040221143196000BFFFF7DAFC0C490A68E4
:100B900020211140490900290BD0002809D1084B18
:100BA0001968202211431960034B196802229143EE
:100BB000196000E0084600BD1020024014200240E9
:100BC0000C20024000B500260A78D3B20546D8B200
:100BD0000C4600280AD0C1B2284600F03FF8721C2B
:100BE000D2B2D6B2A2181278D0B2F2E700BDFFFF9F
:100BF00000B505468EB2FFF7C5FEFFF7D7FCFFF73D
:100C00009FFC014600281FD1104C226801231A4383
:100C100022600F4A954214D30E4A954211D82E8075
:100C2000FFF78EFC0C4A136820221A405209002A52
:100C300006D0002804D1084C226820231A432260E1
:100C400001E00020C04300E0084600BD1020024043
:100C500000000008FF3F00080C20024000B581B0F2
:100C600000910146009880B20A461C321368802227
:100C70001A40D209002A00D1F6E70A46283210604D
:100C800001B000BD00B5FFF767FC9020FFF78EFEB6
:100C9000FFF762FC9120FFF789FE0120FFF778FD46
:100CA0000A4908700120FFF773FD09490870002008
:100CB000FFF76EFD07490870FFF710FE0348007844
:100CC000010209B202480078081800BD01000020A6
:100CD000A0000020A100002000B589B00690079177
:100CE00008930A9CA4B20A940B9C0B9408246C44AD
:100CF0002046FFF7B7FC334E34680125AD032C4383
:100D00003460314D314C2560314D324C2560324DCF
:100D1000324C2560324D334C2560049C00940B9876
:100D2000FFF77EFC069C251D00242C60069C261DDA
:100D300035680A9CA4B22C4334600025069C2560CB
:100D4000089CA4B2002C04D0089DADB2264C2C43C4
:100D50000894069C2568089CA4B22543069C25603F
:100D6000069C25680D242543069C2560069C254687
:100D7000083500242C60009D192428466043079CF8
:100D8000A200FFF72BFC07466422FFF727FC0401B3
:100D900001942609642534466C433C1B24012046FB
:100DA00032306422FFF71AFC0F2405462540019CCF
:100DB00026462E43069C25460C35B4B22C6009B05D
:100DC00000BD00BF1810024019110000A80000204B
:100DD000FFFFFFFFAC000020FFFFFFFFB00000207F
:100DE000FFFFFFFFB40000200004000000B510B4B6
:100DF000002296231146FFF78DFC10BC00BDFFFFBB
:100E000081B040004008C10D40020122400AD205D5
:100E100080187F2901DA002007E0962903DC96225A
:100E2000511AC84001E09639884001B07047FFFF71
:100E300000B570B4140005D1000001D5224840E08F
:100E400022483EE0114602464A40D50F40004A0083
:100E5000ED0740085208002816D0002A14D041009F
:100E60000C0E51000B0E41020120C0055202490A2E
:100E7000520AE41A091812187D34914201D3641CF5
:100E800000E04900002C01DA00201AE00023914222
:100E900001D3891A0343400849000028F7D10029EB
:100EA0000AD0914202D10121C90705E0914201D245
:100EB000012101E00121C943E005C0184019FFF7F5
:100EC00057FD70BC04E000BF000080FF0000807F81
:100ED00000BDFFFF81B01948016801200143174898
:100EE0000160174801681748014015480160134820
:100EF0000168154801401148016010480168134815
:100F000001400E4801600E480168114801400C483C
:100F1000016010480168104801400E4801600F4808
:100F200001680F4801400D4801600E4801680E48F5
:100F300001400C48016001B0704700BF0010024042
:100F4000041002400CB8FFF8FFFFF6FEFFFFFBFFA6
:100F5000FFFFC0FF2C100240F0FFFFFF30100240E7
:100F6000ACFEFFFF34100240FEFFFFFF00B50F286C
:100F700006D10B490A6802210A4309490A600DE0BB
:100F800010280BD30346103B59098A0005498C18D9
:100F90001F210B40012211469940216000BD00BF76
:100FA00010E000E000E100E081B03C787F1C34708C
:100FB000761CAE42F9D101B07047FFFF81B000242A
:100FC0000027AD4503DCB54501DB2F466D46346097
:100FD000361DAE42FBD1AF4203DD3D462668361DCD
:100FE000F5E701B07047FFFF00B50748FFF7AAFD1E
:100FF00001210548FFF7FCFD0448008881B2044840
:10100000FFF7F6FD00BD00BF003C00080200002015
:10101000043C000800B5002801D3012200E00022B2
:101020000A2801D8012100E000211140002901D047
:10103000012000E0002000BD00B582B01849194829
:10104000016000680268D1B217480170D0B27F28F1
:1010500002D9012114480170144912480160006846
:10106000026891B21248018090B2FFF7D3FF0028C6
:1010700002D106210E4801800D48008800F076F963
:10108000FFF7B4FE01900B48009101990A46FFF763
:10109000CFFE0099FFF7B4FE0749086002B000BD1B
:1010A000003C00086C00002000000020043C000808
:1010B00002000020809F554A0400002000B502492C
:1010C00002480160FEE700BD0400FA050CED00E0F7
:1010D00000B58AB20146FF25FF200C4691B28BB2C3
:1010E0004A1E91B2002B0ED022786A40D2B2D3B2FF
:1010F0000134074AD21812784240D5B2054AD218B4
:101100001278D0B2EBE72A0292B2024390B200BD4D
:10111000321E0000321F000000B581B20148FFF707
:101120009DFD00BD0038014000B582B00A46014671
:10113000002017460A2805D23B1820221A700130D9
:1011400080B2F7E73B1800221A70461EB6B2BA19F1
:1011500001920A2200910846FFF740FA10460099D2
:1011600003463033019A13700A220846FFF736FA15
:101170000146002800D102E0761EB6B2E7E702B0D1
:1011800000BDFFFF00B50022102A07D851001B4800
:10119000411800200880013292B2F5E7012117487A
:1011A000018001211648018002211648018016485D
:1011B0000178164801801648018816480180FFF71B
:1011C00061FD1549088015480168402008408009E4
:1011D000002803D001211248018002E000211048BC
:1011E0000180104A118810480180104600880130A3
:1011F000108000210D48018000BD00BF700000205C
:101200007200002074000020000000207600002002
:1012100002000020780000207A0000201000004822
:101220007C000020080000207E00002080000020BC
:1012300000B582B00A46C1B200201646032805D286
:10124000331820221A700130C0B2F7E73318002299
:101250001A70471EFFB2F21901920A220091C8B219
:10126000FFF7BCF91046C0B20099C9B2034630334B
:10127000019A13700A22C8B2FFF7B0F9C0B2C1B226
:10128000002800D102E07F1EFFB2E4E702B000BDFB
:1012900000B501460148FFF795FC00BD003801404C
:1012A00000B5024802490904084304E010000000A8
:1012B0000048000000BFFEF703FF0248024909048E
:1012C000084304E0100000000048000000BFFEF7E3
:1012D000F7FE214A106801218900084310601F4A67
:1012E00010680121490008431060034803490904BC
:1012F00008430121890004E01000000000480000BC
:1013000000BF174A89B2FEF723FF034803490904C7
:1013100008430121490004E01000000000480000DB
:1013200000BF0F4A89B2FEF713FF0E4A1078012161
:10133000884310700C4801680120400008404008B4
:10134000002807D10748017801200840002800D074
:1013500000E0EFE700BD00BF1400004814000048A3
:1013600024000800A20000201000004800B518E08A
:10137000FF202D302CE017482AE0174828E01748B6
:1013800026E0174824E0174822E0174820E01748D5
:101390001EE017481CE017481AE0174818E01248EA
:1013A00016E00028E4D00128E5D00228E5D0032883
:1013B000E5D00428E5D00528E5D00628E5D00728A3
:1013C000E5D00828E5D00928E5D00A28E5D0E6E7E9
:1013D00000BD00BF58020000B0040000600900001A
:1013E000C012000080250000004B000000960000A5
:1013F00000E1000000C201000084030081B0009001
:101400006D466A1C12781309DBB2124AD2181278A0
:101410000A704C1C6A1C13780F221340DBB20D4A71
:10142000D218127822708C1C2A781309DBB2094A70
:10143000D21812782270CC1C2B780F221340DBB20A
:10144000044AD218127822700B1D00221A7001B0C3
:10145000704700BF0821000000B5064A002104B40F
:1014600002B40023002201460348FFF735FC02B016
:1014700000BD00BF342000000038014000B5024A22
:1014800089B2FEF765FE00BD1400080081B000F0CF
:10149000D9F800F0AFFE00F0CBF800F04FFEFFF7F8
:1014A000CBFD80214F48FFF7E9FFC22240214D4884
:1014B000FEF74EFE4C480088FFF758FFFFF7CCFFC1
:1014C00023214A4801604A4A10680121C90508439E
:1014D0001060FFF7E5FE474A10688021084310605E
:1014E0004548FFF7D5FE454800784549FFF7A0FE7F
:1014F0004448FFF7CDFE4248FFF7CAFE3A4800884D
:10150000FFF734FF3E49FFF70FFE3F48FFF7C0FEED
:101510003B48FFF7BDFE3D4800683949FFF704FE30
:101520003B48FFF7B5FE3648FFF7B2FE3948FFF7F4
:10153000AFFE304A1068802188431060FFF722FE1A
:101540002C4A106880210843106000200090009809
:1015500080B2102821D22A49009880B2FFF768FE95
:101560002D48FFF795FE2648FFF792FE009880B2BF
:1015700041002A48401800882149FFF73FFF2848CA
:10158000FFF786FE1E48FFF783FE2648FFF780FE22
:10159000009880B201300090D9E7164A1068802187
:1015A00088431060204A10684021084310602B20B7
:1015B000FFF7DCFC00211D480180FEF7CDFF9020E5
:1015C000FFF7F4F98C20FFF7F1F9FFF787F9024FE5
:1015D0007F1EFDD100BF02E0BF2D080000BFF6E76F
:1015E000FEE700BF00000048020000201438014060
:1015F00004380140140000480A00002000000020C8
:1016000090000020240000202E0000200400002074
:101610003A0000204F0000205200002070000020FF
:101620005E00002063000020003801400800002018
:1016300081B002490248016001B0704780BB0000E0
:10164000A400002000B581B0324A334B334C344DF6
:10165000344E35493548814206D935480168012064
:1016600001433348016005E03148016831480140D9
:101670002F480160FFF72EFC2F4803602F480460BD
:101680002F48114601402F4801602F4805602F4820
:10169000066001201040002808D02A480168022076
:1016A0000840002800D1F8E7194600E0194628480C
:1016B000104000280AD00B462248016825480840FF
:1016C000002800D1F8E711461A4602E000911146C1
:1016D000009A2148084000280ED01A4801681E4888
:1016E000014318480160174801681C480840002859
:1016F00000D1F8E7134600E013460F4801680C20BC
:101700000A46024099000C200840824200D0F4E7CB
:1017100001B000BD80000101020011800000000046
:10172000000000008100000080BB0000C05D0000E0
:1017300000200240F8FFFFFF041002402C1002407E
:10174000FFFF0F000010024024100240341002403E
:101750000000010000000200000000010000000283
:1017600000B5F0B486B008266E440A25AD19B04F16
:10177000FFF71AFC00260025AE4A10684021884376
:101780001060AD4801680120400108404009002870
:1017900025D02321A9480160A94A10680121C90563
:1017A00008431060A4480168012040010840400936
:1017B000002813D0A34A1188A3484118A348006801
:1017C000087010460088411C89B21180FF20053046
:1017D000814202D900219B480180E3E7FFE79C4852
:1017E00001680120C0020840C00A002801D100F0B1
:1017F00008FB974A10680121C90288431060954A86
:1018000010680121C902084310608D4A1068012147
:10181000C90588431060002188480160894A059203
:101820001188894841180020087010460088801EE1
:101830000096019581B28448FFF74AFC019DEDB204
:10184000009EF6B284490880059C214609888A1EBC
:1018500092B27D49891809780B021BB2214609888A
:101860004A1E92B2784989180978591889B281427A
:1018700000D0BEE27948017873480078884200D0F1
:10188000B6E27648017876480170764800780328F9
:1018900000D0A1E00321744801707448007801026F
:1018A00009B2734800784218029272480078010227
:1018B00009B2714800784018039090B27F2801D98E
:1018C0007F200290039989B2029880B2401880B2BA
:1018D0007F2804D9029989B27F20401A0390039887
:1018E00080B2410065480170FFF74CFC002303986B
:1018F00080B283423CD2029880B2181880B210287D
:1019000021D8580000B2C11C09B2554842180298AB
:1019100080B2181880B24100594840180130007850
:101920001070580000B2033000B2411C09B24C489C
:101930004218029880B2181880B2410050484018EE
:101940000078107011E0580000B2C11C09B2444880
:10195000411800200870580000B2033000B2411C4A
:1019600009B23F4841180020087001331BB2BEE79E
:10197000039880B2400080B2033082B2009281B2FC
:101980003748FFF7A5FB009A92B2334908803448E4
:1019900081183C4800780870511C89B230484118C1
:1019A0002D4800780870931C9BB2374A106880213C
:1019B0000843106000259CB2A54207D22848401970
:1019C0000078FFF7A9FB01352DB2F5E72E4A106824
:1019D0008021884310600AE222480078042800D061
:1019E000CCE004212048017020480078010209B2AF
:1019F0001F480078421802921E480078010209B27E
:101A00001D4800784018039090B27F2801D97F20AC
:101A10000290039989B2029880B2401880B27F2860
:101A200004D9029989B27F20401A039003982DE0CF
:101A300028210000003801401C38014014380140C2
:101A40000438014066000020B8000020243801401E
:101A50001C380140203801406800002000000020B0
:101A6000BC010020B9000020BD010020BA00002008
:101A7000BB000020BC000020BD000020BE010020F3
:101A800070000020690000201400004880B241006E
:101A9000B44801700023039880B283423AD202987E
:101AA00080B2181880B200281FD10093FFF7EAF81F
:101AB000009B1BB20490580000B2C11C09B2AA4896
:101AC000411810226A44501C00780870580000B277
:101AD000033000B2411C09B2A348411810780870C5
:101AE000A24908880130088011E0580000B2C11CEA
:101AF00009B29D48411800200870580000B2033018
:101B000000B2411C09B29848411800200870013306
:101B10001BB2C0E7039880B2400080B2033082B2AB
:101B2000009281B29048FFF7D3FA009A92B290499E
:101B300008808D4881188F4800780870511C89B240
:101B4000894841188A4800780870901C83B28A4AF4
:101B5000106880210843106000259CB2A54207D27E
:101B6000814840190078FFF7D7FA01352DB2F5E723
:101B7000814A106880218843106038E17F480078EE
:101B8000102800D033E110217D4801707D48007895
:101B9000010209B27C480078431802937B48007820
:101BA000010209B27A4800784018039008226A447A
:101BB000501C01786B4801701178764801700C2236
:101BC0006A44501C017874480170117873480170A0
:101BD00098B27F2801D97F200290039989B2029898
:101BE00080B2401880B27F2804D9029989B27F2040
:101BF000401A03900023ECB2F5B2039880B28342FE
:101C000000D37CE0029880B2181880B2032812D169
:101C1000580000B2C11D09B26148401800780202A4
:101C200012B2013109B25E484018007811185D48BF
:101C30000170012560E0029880B2181880B2042873
:101C40001DD1580000B2C11D09B255484018007896
:101C5000020212B2013109B251484018007811183D
:101C60005148018088B2FFF7D5F9002806D04E48C8
:101C700001884E4801800120C5B2FFE73CE0029890
:101C800080B2181880B2082832D1580000B2C11DA5
:101C900009B2434840180078020212B2013109B279
:101CA0003F484018007811183F48018088B2012849
:101CB00002D10121E8B216E03B480088022804D195
:101CC00000212A480180E8B20CE037480088022849
:101CD00007D10121334801700621344801800120D9
:101CE00000E0E8B2E1B20091C1B20098C0B201E0F8
:101CF000E0B2E9B2C4B2CDB201331BB27DE70094C9
:101D0000019506211848FFF7E3F9019DEDB2009C0B
:101D1000E4B2174908801748017825480170144833
:101D2000017824480170144A10688021084310602B
:101D30000020E3B2ECB205B2082D0ADA0A484019D5
:101D400000780093FFF7E8F9009BDBB201352DB274
:101D5000F2E7094A1068802188431060002C41D0C6
:101D6000009329E0BE010020BC01002008000020F3
:101D7000680000206900002014000048B90000201D
:101D8000BD010020BA000020BB000020BC000020E4
:101D9000BD000020BF010020C0010020C1010020C3
:101DA000B8000020000000206A000020020000208F
:101DB000C2010020C3010020FFF716F9009BDBB22F
:101DC00014480088FFF7D2FA0093FFF745FB009B09
:101DD000DBB2232110480160104A10680121C905B7
:101DE00008431060002B01D0FFF768F9FFE7FFE719
:101DF000FFE700210A48018001880A4841180020B5
:101E00000870094A106840210843106006B0F0BC11
:101E100000BD00BF0200002014380140043801401A
:101E200066000020B80000200038014000B5FEE741
:101E300000BD00C1814001C0804101C0804100C19E
:101E4000814001C0804100C1814000C1814001C08A
:101E5000804101C0804100C1814000C1814001C07A
:101E6000804100C1814001C0804101C0804100C16A
:101E7000814001C0804100C1814000C1814001C05A
:101E8000804100C1814001C0804101C0804100C14A
:101E9000814000C1814001C0804101C0804100C13A
:101EA000814001C0804100C1814000C1814001C02A
:101EB000804101C0804100C1814000C1814001C01A
:101EC000804100C1814001C0804101C0804100C10A
:101ED000814000C1814001C0804101C0804100C1FA
:101EE000814001C0804100C1814000C1814001C0EA
:101EF000804100C1814001C0804101C0804100C1DA
:101F0000814001C0804100C1814000C1814001C0C9
:101F1000804101C0804100C1814000C1814001C0B9
:101F2000804100C1814001C0804101C0804100C1A9
:101F3000814000C0C101C30302C2C60607C705C570
:101F4000C404CC0C0DCD0FCFCE0E0ACACB0BC909E1
:101F500008C8D81819D91BDBDA1A1EDEDF1FDD1DF1
:101F60001CDC14D4D515D71716D6D21213D311D121
:101F7000D010F03031F133F3F23236F6F737F53571
:101F800034F43CFCFD3DFF3F3EFEFA3A3BFB39F9A1
:101F9000F83828E8E929EB2B2AEAEE2E2FEF2DED71
:101FA000EC2CE42425E527E7E62622E2E323E121E1
:101FB00020E0A06061A163A3A26266A6A767A565F1
:101FC00064A46CACAD6DAF6F6EAEAA6A6BAB69A961
:101FD000A86878B8B979BB7B7ABABE7E7FBF7DBD71
:101FE000BC7CB47475B577B7B67672B2B373B171A1
:101FF00070B0509091519353529296565797559571
:1020000094549C5C5D9D5F9F9E5E5A9A9B5B995920
:102010005898884849894B8B8A4A4E8E8F4F8D4DF0
:102020004C8C448485458747468682424383418160
:102030008040FFFF090100000A010000FFFFFFFFD1
:102040000000000000000000000000000000000090
:102050000000000000000000000000000000000080
:102060000000000000000000180800001808000030
:102070000000000000000000000000000000000060
:102080000000000000000000000000000000000050
:102090000000000000000000000000000000000040
:1020A000B600000000000D0A52656164792C2049D9
:1020B000324320696E6974616C697A65640D0A0047
:1020C000204164726573733A200020626175647206
:1020D0006174653A2000207061636B65745F746998
:1020E0006D656F75745F75733A20000D0A0020529C
:1020F000656769737465723A2000203E3E20000DCA
:102100000A00000000000000303132333435363729
:1021100038394142434445460000000001020304AF
:102120000102030406070809000000000000000087
:1021300000000000000000008000000000B5084E14
:10214000084D094FFEF730FF084E094D094FFEF7C5
:102150002BFF074E084D094FFEF726FF00BD7047C5
:1021600000000020010000205605000002000020B1
:1021700004000020360400006C000020A0200000B5
:10218000FFFFFFFFFFFFFFFFFFFFFFFFFFFFFFFF5F
:10219000FFFFFFFFFFFFFFFFFFFFFFFFFFFFFFFF4F
:1021A000FFFFFFFFFFFFFFFFFFFFFFFFFFFFFFFF3F
:1021B000FFFFFFFFFFFFFFFFFFFFFFFFFFFFFFFF2F
:1021C000FFFFFFFFFFFFFFFFFFFFFFFFFFFFFFFF1F
:1021D000FFFFFFFFFFFFFFFFFFFFFFFFFFFFFFFF0F
:1021E000FFFFFFFFFFFFFFFFFFFFFFFFFFFFFFFFFF
:1021F000FFFFFFFF00B5034E034DFEF7DFFE00BDFE
:10220000704700BF00000020C0020020FFFFFFFF5A
:00000001FF
